:020000040000FA
:10100000F0180010B9110000BD110000BF11000060
:10101000C1110000C3110000C51100000000000054
:10102000CC33AA550000000000000000C7110000EA
:10103000C911000000000000CB110000F9360000CB
:10104000CF110000CF110000CF110000CF11000020
:10105000CF110000CF110000CF110000CF11000010
:10106000CF110000CF110000CF110000CF11000000
:10107000CF110000CF110000CF110000CF110000F0
:10108000CF110000CF110000CF110000CF110000E0
:10109000CF110000F1370000CF110000CF11000088
:1010A000CF110000CF110000CF110000CF110000C0
:1010B000CF110000CF110000CF110000CF110000B0
:1010C00000F002F800F04CF80CA030C808382418E2
:1010D0002D18A246671EAB4654465D46AC4201D170
:1010E00000F03EF87E460F3E0FCCB6460126334256
:1010F00000D0FB1AA246AB4633431847049C0000BD
:10110000149C000010B503681B0A01D38023194307
:10111000642902D100F096F910BD782902D100F0BF
:101120002BFA10BDE42902D100F0C2F910BDF52957
:1011300002D100F0BDF910BD732902D100F004FE08
:1011400010BD002010BD1FB500F098FE0400002067
:10115000002108F0EBFC401C60601FBD10B510BD05
:1011600000F04EFF1146FFF7EEFF07F0CDFA00F05A
:1011700075FF03B4FFF7F2FF03BC00F0BBFF0000F4
:1011800070B505460C46164602E00FCC0FC5103E62
:10119000102EFAD2082E02D303CC03C5083E042E2B
:1011A00007D301CC01C5361F03E021782970641CE8
:1011B0006D1C761EF9D270BD08480047FEE7FEE7B9
:1011C000FEE7FEE7FEE7FEE7FEE7FEE7FEE7FEE7F7
:1011D00003480449024A044B70470000C110000054
:1011E000F0120010F0180010F012001043435143A9
:1011F00030B55C18010C130C0D4692B25D4380B201
:1012000051432C19054655430A0C09044D196241F6
:101210005843010C00044019514130BDFEB505464C
:1012200010460C46184373D0AE468C460020AD1ACB
:1012300001469C4167D36646002701243D46B61A05
:101240009D4102D313463A462124654676462F0433
:10125000360C3E432D0CB61A9D4104D3150C1B04CD
:101260002B4312041034654676462F06360A3E4359
:101270002D0AB61A9D4104D3150E1B022B431202F0
:101280000834654676462F0736093E432D09B61ABF
:101290009D4104D3150F1B012B431201241D6546EC
:1012A0007646AF07B6083E43AD08B61A9D4104D353
:1012B000950F9B002B439200A41C65467646EF07D2
:1012C00076083E436D08B61A9D411AD392185B41C9
:1012D000641C16E00018764665464941B71A9D41E0
:1012E0000191009009D36046B11A98418E46844618
:1012F000009801990025401C6941DD0752082A43E6
:101300005B08641EE6D57246634603B0F0BDFFE796
:1013100000200146C046C0462A462346F5E710B5E0
:10132000044600F037FC0068005D000704D5DF2CA0
:1013300002D02046203810BD204610BD0FB41CB589
:10134000084B06AA7B4469460090059800F0C9FC4A
:1013500004460020694600F0D7FC20461CBC08BCAF
:1013600004B01847C10900000FB47CB50C0009AAED
:10137000009001D00019401E094B7B446946019042
:10138000089800F0AEFC002C054603D0694600200A
:1013900000F0BAFC28467CBC08BC04B0184700002A
:1013A0009509000070B5044685690068C10601D53D
:1013B000302600E02026C00707D070BD62683046A6
:1013C000A1689047206A401C20626D1EF6D570BD52
:1013D00070B5044685690078C00707D170BD6268A2
:1013E000A16820209047206A401C20626D1EF6D51F
:1013F00070BD70B50C460546012A05D028788006D8
:1014000000D5EA69002302E0012305E05B1C93425A
:1014100002D2E05C0028F9D1A869E618C01AA861D8
:10142000286AC01828622846FFF7BCFF04E06A68F3
:101430002078A968641C9047B442F8D32846FFF787
:10144000C7FF70BDF7B5002575291068009914A66F
:1014500011D0C046C046002802DA404211A608E07A
:10146000009909688A0701D50FA602E0490704D54B
:101470000EA6012501E0C046C046009F0024243787
:1014800004E000F0E2FC30313955641C0028F8D14A
:101490002B4632462146009800F0C5FBFEBD0000F9
:1014A000000000002D0000002B00000020000000C4
:1014B000F7B5D21D0025D20815A6D200F52905CA18
:1014C00011D0002A05DA00214042914111A60A46B6
:1014D00008E0009909688B0701D50FA602E04907CB
:1014E00001D50EA601251146009F0024243704E0F3
:1014F00000F05CFB30323A55641C02460A43F7D1D7
:101500002B4632462146009800F08DFBFEBD0000C0
:10151000000000002D0000002B0000002000000053
:10152000F8B50F460188090502D5224C7C4402E03B
:10153000204C7C440E3405460021243508E0160773
:101540001209360FA65D6E541E0732431B09491C53
:1015500016461E43F3D1224604780023240705D5FE
:10156000702F06D0002901D00223113200F05BFB5E
:10157000F8BD01231032F9E770B504460D46214647
:101580001068C046C0460023024629462046FFF7A1
:10159000C7FF70BDD21DD308DB000CCBC0E730B451
:1015A000036820241268234303600823C36130BC0E
:1015B0000023B5E748940000F3B50446002081B04D
:1015C00020622046E1688847002872D0252802D092
:1015D0006268A168ABE0594F00267F442046E1686D
:1015E00088472028054608DB312D06D27819203897
:1015F0000078002801D00643F0E7B00701D50420A9
:1016000086430020E0610746A0612A2D0AD02846C3
:1016100002F027FA002827D0B8000019303D0090CA
:10162000856119E00298BA00121902C8916102900E
:101630002046E1688847012F054617D1E069002858
:101640001FDA202086431CE000980A218069484365
:1016500000994019303888612046E168884705467E
:1016600002F0FFF90028EFD1012F0AD02E2D08D16A
:101670002046E16888470546202006437F1C022F4C
:10168000C3DBA069002803DA4042A06101200643C1
:10169000F00701D0102086436C2D0BD0682D09D0A7
:1016A0004C2D3CD06A2D38D0742D38D07A2D36D0C0
:1016B00016E040E0E1682F4620468847B8420546DC
:1016C00009D16C2F29D001208002E1680643204611
:1016D0008847054604E06C2F1DD0FF2001300643EB
:1016E000002D28D028464138192803D80120C002EF
:1016F00006432035204626602946029A1646FFF703
:1017000001FD002810D001280BD0F61DF008C00004
:101710000830029055E74020E1E78020D5E700201F
:10172000D3E7361D02964CE762682846A1689047C9
:10173000206A401C44E7206AFEBD0000C2930000FE
:1017400070B5064600F02EFA0468054630460A22B7
:10175000002100F0FDFA2C6070BD70B5064600F067
:1017600021FA0468054630460A22002100F0F0FA0A
:101770002C6070BD70B5064600F014FA046805468A
:1017800030460A22002100F01BFB2C6070BD10B512
:10179000431E5C785B1C002CFBD105E00C78491CD7
:1017A0001C705B1C002C03D0521EF7D20021197054
:1017B00010BD0000034670B502460B439B070FD1D6
:1017C0000E4CE60100E008C208C91D1B9D433542CE
:1017D000F9D0D9B21170521C00290DD01B0AF8E7BC
:1017E0000B78491C1370521C002B05D00B78491C38
:1017F0001370521C002BF3D170BD000001010101D8
:1018000030B5441C03E00178401C00290DD081074D
:10181000F9D10B4BDD0104C8D11A91432940FAD00C
:10182000001B0A0603D0C01E30BD001B30BD0A04D9
:1018300001D0801E30BD0902FCD0401E30BD00002A
:1018400001010101421E5378521C002BFBD10B7881
:10185000491C1370521C002BF9D17047F8B5042AAB
:101860002CD3830712D00B78491C0370401C521EE6
:1018700083070BD00B78491C0370401C521E830752
:1018800004D00B78491C0370401C521E8B079B0F21
:1018900005D0C91ADF002023DE1B08C90AE0FFF7C4
:1018A0006FFCF8BD1D4608C9FD401C46B4402C43E2
:1018B00010C0121F042AF5D2F308C91A521EF0D420
:1018C0000B78491C0370401C521EEAD40B78491C4B
:1018D0000370401C012AE4D409780170F8BDD2B22B
:1018E00010B513029A1813049A1800F00EF810BDE0
:1018F00001E004C0091F0429FBD28B0701D5028037
:10190000801CC90700D00270704700290BD0C307A4
:1019100002D00270401C491E022904D3830702D55D
:101920000280801C891EE3E70022EEE70022DFE749
:10193000F8B507460B4639461943890713D1164CAB
:10194000E601042A0FD302CB0D1B8D43354202D191
:1019500002C0121FF5E7CBB20370401C521E002BD1
:1019600013D0090AF7E7002A14D01978521E5B1C1D
:101970000170401C002908D0002A0BD01978521E93
:101980005B1C0170401C0029EDD1002A02D01146D9
:10199000FFF7CAFF3846F8BD010101010378C2789C
:1019A0001946437812061B0219438378C0781B043A
:1019B000194311430902090A000608437047020A45
:1019C00008704A70020C8A70020ECA70704710B517
:1019D00042780378110E120213438278140C120419
:1019E0001343C2782143140A120613430279214398
:1019F00011434279120211438279C07912041143D2
:101A000000060143184610BDF0B50D06040A2C432C
:101A1000107054700D04040C2C4394700E02040ECC
:101A200034430F0AD4700D0C117157710E0E95715D
:101A3000D671F0BD002203098B422CD3030A8B42DE
:101A400011D300239C464EE003460B433CD40022B6
:101A500043088B4231D303098B421CD3030A8B42C8
:101A600001D394463FE0C3098B4201D3CB01C01A96
:101A7000524183098B4201D38B01C01A5241430961
:101A80008B4201D34B01C01A524103098B4201D34F
:101A90000B01C01A5241C3088B4201D3CB00C01ABC
:101AA000524183088B4201D38B00C01A5241430834
:101AB0008B4201D34B00C01A5241411A00D2014659
:101AC0005241104670475DE0CA0F00D049420310F2
:101AD00000D34042534000229C4603098B422DD341
:101AE000030A8B4212D3FC22890112BA030A8B42E9
:101AF0000CD3890192118B4208D3890192118B4238
:101B000004D389013AD0921100E08909C3098B42BC
:101B100001D3CB01C01A524183098B4201D38B01FF
:101B2000C01A524143098B4201D34B01C01A5241A2
:101B300003098B4201D30B01C01A5241C3088B42E7
:101B400001D3CB00C01A524183088B4201D38B00D2
:101B5000C01A5241D9D243088B4201D34B00C01A5C
:101B60005241411A00D20146634652415B10104671
:101B700001D34042002B00D54942704763465B10B9
:101B800000D3404201B50020C046C04602BD7047A8
:101B90007047704710B500F071F9001D10BD00BF0F
:101BA0008D7F0000004870478C1200100B4670B506
:101BB000024689078008084319469D08141AA9415E
:101BC00025090807054308092C194841250A01067B
:101BD0000D43010A2C194141200C0D0428430D0C22
:101BE00000194D41002140194D41C00869070843C3
:101BF000E908840F8D002543840024184D412419E1
:101C00006D41121BAB4107E00925ED432C11521920
:101C100063410024401C61411C460A250026551BD7
:101C2000B441F1D270BDFFB504460D4681B02430F9
:101C300000902168880604D51022E0699143216054
:101C400000E00120A84201DD471B00E000270498C6
:101C5000A1697A191018081AA0612078C00602D468
:101C60002046FFF79FFB002608E003986268A16802
:101C7000805D9047206A401C761C20620498864252
:101C8000F3DB2078C0060AD52046FFF78BFB06E081
:101C90006268A16830209047206A401C2062384664
:101CA0007F1E0028F4DC07E000986268A168405DB0
:101CB0009047206A401C206228466D1E0028F3DCF5
:101CC0002046FFF785FB2078000602D5022005B0EC
:101CD000F0BD0120FBE7000001694A1C02610878A1
:101CE000704700B58FB0029100210591054901931D
:101CF00079440391114604906846FFF75DFC0FB0EC
:101D000000BD0000E5FFFFFF0A681070521C0A606A
:101D100070470CC908399A4202D2531C0B601070EC
:101D2000704710B54369002B02D0C046C04601E0A1
:101D3000FFF75FFB012010BD1278014624310A70C5
:101D400000224A700122ECE711680022D243E8E742
:101D5000F7B50F460026009C2578641C002D05D0A1
:101D6000FFF718FF0068405DC007F5D12B2D02D0AA
:101D70002D2D18D0641E3946029A204600F082F8B4
:101D8000002F04D03968A14201D100993960710552
:101D9000022400290BDA4042002803DDFFF702FF8E
:101DA0000460A007FEBD012080020643E3E700288F
:101DB000F8DAFFF7F7FE04600048FEBDFFFFFF7F83
:101DC000F7B50E460025009C2778641C002F05D02F
:101DD000FFF7E0FE0068C05DC007F5D12B2F02D0F1
:101DE0002D2F1ED0641E3146029A204600F09DF829
:101DF000002E04D03268A24201D1009A32606A05F6
:101E00000224002A18DA002245428A410026751B66
:101E10003346934109DB002240428A41114603B018
:101E2000F0BD012080020543DDE7FFF7BBFE046043
:101E300001210020C907F2E70029F0DAFFF7B2FE1E
:101E400004600020C0434108E9E701468008081A01
:101E500002091018020A1018020C1018C00882009B
:101E600012185200891A01E0401C0A390A29FBD2D3
:101E700070470000004870478C12001000487047FF
:101E8000AC120010F7B5154682B00027029C2078EE
:101E9000641C0197302802D0002D15D015E0207861
:101EA0000127641C782804D0582802D0002D09D0BE
:101EB0000BE0002D01D0102D07D120780027102530
:101EC000641C02E0082500E00A250026009610E0C8
:101ED000009901276943081829467143020C80B212
:101EE00000908E183804864201D30120019020789A
:101EF000641C294600F0A3F80028E9DA03980028BA
:101F000005D0002F01D0641E00E0029C04600198FF
:101F1000002806D0FFF746FE02210160C81E05B06A
:101F2000F0BD009930040843F9E7F7B5154684B0D1
:101F30000021049C2078641C01913028029102D079
:101F4000002D17D017E0012001902078641C78281C
:101F500004D0582802D0002D0AD00CE0002D01D06A
:101F6000102D08D10020019020781025641C02E07B
:101F7000082500E00A250027E9173E46009703914F
:101F80001CE0012133460191009969430A18284653
:101F9000039900923A46FFF729F9009A130C0022A0
:101FA000C7185141009A0E4690B2009001200004DB
:101FB000814201D3012002902078641C294600F060
:101FC0003EF80028DDDA0598002807D0019800289F
:101FD00001D0641E00E0049C05980460029800286B
:101FE00007D0FFF7DFFD02210160C81E014607B0E0
:101FF000F0BD009A380C3104014338041043F6E771
:102000007546FFF737FFAE46050069465346C008E0
:10201000C000854618B020B5FFF7DAF860BC00278D
:102020004908B6460026C0C5C0C5C0C5C0C5C0C5A4
:10203000C0C5C0C5C0C5403D49008D4670473A285F
:1020400000D23038202302469A43412A01D3104659
:102050003738884201D30020C043704710B504468A
:10206000C046C0462046FFF784F810BD024670B552
:102070000A4392072AD11E4DEE0104C808C9541B19
:102080009443344017D0D0B2D9B2401A210601434C
:1020900010D190B299B2401A210401430AD1100222
:1020A0001902000A090A401A2102014302D1100E46
:1020B000190E401A70BD9A42DFD010BA19BA884280
:1020C00001D9012070BD0020C04370BD02780B789B
:1020D000401C491C002A09D09A4207D102780B788B
:1020E000401C491C002A01D09A42EFD0D01A70BD82
:1020F0000101010101491820ABBEFEE726000200E4
:10210000704770B58C180578401C6B075B0F01D1C8
:102110000378401C2A1106D10278401C03E006789F
:10212000401C0E70491C5B1EF9D12B0705D40023FF
:10213000521E0DD40B70491CFAE70378401CCB1AD1
:10214000921C03E01D780D70491C5B1C521EF9D5D2
:10215000A142D8D3002070BD38B5104CE0794107BA
:102160001BD5C10701D1800717D50D491A2048702A
:102170000C49F7220878400840001040087002F02F
:1021800001FB00200346014600900622232004F0B4
:1021900099FDE079FB210840E07138BD8E100010F8
:1021A000A8020010340D001010B5002801D0012243
:1021B00000E000220021022000F0D6FA10BD00004D
:1021C000F0B585B00F4604461D46164614216846F4
:1021D000FFF7ACFB00210C2254430A4A6846012D4C
:1021E0000CD06318D35C4354491C0C29F7D3F2B2CA
:1021F000F9B2684601F0AEF805B0F0BD6318D35CE3
:10220000DB43F0E7B89B000070B5044615460E4668
:1022100015A007C886B002AB07C30020009001904C
:10222000012001F06FF9002002A90A5CA24201D14D
:10223000C4B202E0401C0C28F7D300230D4A6946C3
:10224000E000012D0BD0C418145DCC545B1C082B8E
:10225000F7D3F1B2684607F0ABFB06B070BDC41807
:10226000145DE443F1E700004142434445464C4FCE
:1022700052545620B8A7000002480422C1791143E5
:10228000C1717047340D001070B51B4CE0794007E8
:1022900030D51A480646FFF7B3FA184D193D002805
:1022A000174819D001F056FD304601F053FDA078D3
:1022B000F721084010263043A07000220223114667
:1022C000284601F0F1FDA07802233043A0700022DF
:1022D000012128469A300BE001F03CFDA17808204E
:1022E0000143EF200140A17000220223114628463D
:1022F00001F0DAFD70BD0000340D00103011001047
:10230000961000100248FB22C1791140C17170473C
:10231000340D001070B50546002902D0012904D102
:1023200001E0144C01E0134C9A34FFF769FA1028CD
:1023300010D9802229462046FFF7FAFA2146923129
:102340002046FFF73CFB2046FFF75AFA00192146CA
:1023500096310BE0802229462046FFF7E9FA214614
:1023600096310020FFF72BFB21469231FFF727FB28
:1023700070BD000096100010F0B584468E46002017
:10238000014606E0EB1AA741624688C20022401CC3
:102390005141624615687446526818CC1746EE1AC9
:1023A000A241EFD2F0BDF7B582B014000D4611D0B6
:1023B00001200E461746009001F04EF9002000F073
:1023C0008EF900F0A0F901F00EF90220029900F058
:1023D00068F906E0012005B0F0BD3078761C01F008
:1023E0003DF97F1EF9D201F0F7F800F06AF9C00755
:1023F000FBD101F0F8F80320029900F052F9002C0B
:102400000BD0FF2001F04AF929786D1C884202D0D8
:102410000020009001E0641EF3D101F0DDF801F02E
:102420001CF90098D7E7F7B517000E4630D00D46D7
:10243000144601F011F9002000F051F900F063F9A1
:1024400001F0D1F8AD20009900F02BF9287801F0C7
:1024500005F96878AD1C01F001F901F0BDF800F054
:1024600030F9C007FBD1641E14D001F0BCF8AD20D8
:1024700001F0F4F8287801F0F1F86878AD1C01F06B
:10248000EDF801F0A9F800F01CF9C007FBD1EAE76C
:102490000120FEBD01F0A7F8042001F0DFF801F0F3
:1024A0009BF800F00EF9C007FBD101F09CF8032067
:1024B000009900F0F6F87C00012509E0FF2001F00A
:1024C000EDF83178884201D0002503E0641E761CC7
:1024D000002CF3D101F080F801F0BFF82846FEBDD2
:1024E00070B515460C46064601F0B6F801F07BF8CB
:1024F0003146032000F0D5F80DE0FF2001F0CEF8C2
:102500002178814305D001F067F801F0A6F800209A
:1025100070BD641C6D1E002DEFD101F05DF801F05F
:102520009CF8012070BD0000F7B507461F48012642
:10253000007814468C2812D114E0FF20F9B2013043
:10254000451AA54200D925462A4638460199FFF783
:102550002AFF064001987F194019641B0190002C46
:10256000EBD121E0F8070DD001980178384600F052
:102570001FF8C6070198F60F401C641E7F1C0190CF
:10258000002C11D0620838460199FFF74CFF064035
:10259000E00709D0019800192038C17F6008400089
:1025A000C01900F005F806403046FEBD00010010DD
:1025B00070B50C46054601F04FF8002000F08FF88A
:1025C00000F0A1F801F00FF82946022000F069F8A8
:1025D000204601F043F800F0FFFF00F072F8C0075A
:1025E000FBD101F000F82946032000F05AF8FF2043
:1025F00001F054F8A04201D1012400E0002400F0D1
:10260000EBFF01F02AF8204670BD10B501F024F868
:10261000002000F064F800F076F800F0E4FFC72036
:1026200001F03CF800F0D8FF00F04BF8C007FBD1F8
:1026300001F013F810BD10B500F0CEFF10BD70B55D
:1026400014460D46064601F007F800F0CCFF31466F
:10265000032000F026F805E0FF2001F01FF82870A5
:10266000641E6D1C002CF7D100F0B6FF00F0F5FFE2
:1026700070BD10B5044600F0EFFF002000F02FF809
:1026800000F041F800F0AFFF2103202000F009F82E
:1026900000F0A2FF00F015F8C007FBD100F0DDFF4D
:1026A00010BD10B50C4600F0D9FF2002000E00F05E
:1026B000D5FF2004000E00F0D1FFE0B200F0CEFF05
:1026C00010BD10B500F08FFF052000F0C7FFFF2000
:1026D00000F0E4FF044600F07FFF204610BD10B577
:1026E000044600F080FF502000F0B8FF00F074FFB7
:1026F00000F079FF012000F0B1FF204600F0AEFFAE
:1027000000F06AFF10BD10B500F06DFF062000F06C
:10271000A5FF00F061FF10BD07480168402211438A
:1027200001600648C16BC908C900C163C16B0122C1
:102730001143C16370470000808004404040044062
:1027400030B50125ED030123064C8B408000205855
:1027500040190168002A01D0194300E09943016043
:1027600030BD0000589B00008A40044B80001B587D
:102770000120884080001A5070470000589B0000DC
:1027800070B511480446FFF709F90F4B05460C3B9D
:10279000082019180A7810464A78120210438A78DD
:1027A000C9781204104309060843854209D05E5DCA
:1027B000681C0721FFF73EF908462146FFF7FFF89E
:1027C00000E00026304670BD7F12001070B5012277
:1027D0000A211046FFF7B4FF00220A210120FFF76B
:1027E000C3FF234C8020E06201220B210020FFF771
:1027F000A7FF00220B211046FFF7B6FF8125656376
:10280000012200211046FFF79BFF00221146012004
:10281000FFF7AAFFA563012211461046FFF790FFBC
:10282000012100220846FFF79FFFE56301220221F4
:102830001046FFF785FF002202210120FFF794FFD9
:102840000B4840300560FF2205210A48FFF747F892
:10285000084D0024103D2C726C72AC72EC7229464B
:102860000C312046FFF7ABF86C75AC7570BD0000FD
:102870004040044083120010F8B500272F4D3C461D
:1028800001263046B84007F06BF81E200090401E2D
:102890000090FCD107F034F8E9190A7C824202D09A
:1028A000641C0874E4B27F1C052FEAD3002007F0F3
:1028B00057F8002C40D100223046A9180F7C002187
:1028C000D60003468B403B4204D1002C34D1731810
:1028D0005B1CDCB2491C0829F3D3521C052AECD33B
:1028E0006B7DA34228D0002B25D0082029180A7818
:1028F00010464A78120210438A78C97812041043AD
:10290000090608432B54082029180A7810464A78EB
:10291000120210438A78C97812041043090608434A
:102920000721401CFFF786F82972080A6872080C14
:10293000A872080EE8726C75F8BD000073120010E2
:1029400010B502708AB201460123022005F03EFF55
:1029500010BD10B5002901D0642901D9002010BD97
:102960005A2303708AB201230146184605F02EFF50
:1029700010BD000030B5A1B00C4605468021684668
:10298000FEF7D4FF2146684600F0A8F8002C02D0DC
:102990001248844202D9002021B030BD1E212046B9
:1029A000FFF748F81E214843201A401E0004800B00
:1029B00069460D506846FEF723FF01B2684601F0F4
:1029C00057F818A9C8771E21601EFFF73DF882B29C
:1029D00001236946062005F0F9FEDDE7B80B00008B
:1029E00010B5002902D0064B994201D9002010BD34
:1029F00002708AB201460123002005F0E7FE10BDF7
:102A0000B80B000010B504468AB20023214602200C
:102A100005F0DCFE012802D12078A52801D0002095
:102A200010BD012010BD000010B58AB20446014659
:102A30000023082005F0CAFE014A2178117010BD5C
:102A4000E802001010B5044600290CD064290AD809
:102A50008AB200232146012005F0B8FE012802D1E8
:102A600020785A2801D0002010BD012010BD0000A0
:102A700070B5A0B00C46064680216846FEF756FFAA
:102A8000002C26D01448844223D81E212046FEF76D
:102A9000D1FF1E214843201A401E85B2601EFEF75A
:102AA000C9FF82B200236946062005F08FFEA80008
:102AB0006946085830606846FEF7A2FE01B26846D3
:102AC00000F0D6FF18A9C97F884202D1012020B0AA
:102AD00070BD0020FBE70000B80B000010B50A0035
:102AE000044602D00848824201D9002010BD1E21B0
:102AF000501EFEF79FFF82B200232146062005F0FC
:102B000065FE012010BD0000B80B000010B50446A2
:102B100000290DD0084A91420AD88AB200232146E2
:102B2000184605F053FE012802D12078A52801D0CF
:102B3000002010BD012010BDB80B0000F8B5044600
:102B40008AB2244D244E00232146072005F03EFE84
:102B5000012802D1E079A52801D00020F8BD6078D5
:102B60002178000208431D4F010AB870F9700090E7
:102B7000E0793870A01CFEF711FF3A1D0021FEF726
:102B800043FFA81CFEF723FF3A460C321746FEF718
:102B90003BFFA079114C0099143400280FD0304627
:102BA000FFF750FF314612312046FEF703FEB01CFE
:102BB000FEF70DFF3A46FEF727FF0120F8BD284635
:102BC000FFF7A4FF294629312046FEF7F3FDA81C94
:102BD000EEE70000F60D0010360E0010760D001026
:102BE000F0B51748154B0360164801240460446093
:102BF0000025456044604168C907FCD0114940394F
:102C00008A682526520A520232438A600E4FBA6BF6
:102C10008026B243BA63CA68D207FCD0032101639D
:102C2000446345634463416BC907FCD08463044833
:102C300006214B4343608360F0BD000000127A0020
:102C4000980200104080044000820440C003010C40
:102C50000248018001880029FCD17047B2020010AF
:102C6000012212031004C02172B608CA091F08C04D
:102C70000029FAD102490120086062B670470000BD
:102C800000800440F0B5A7B09E4C802107A8FEF755
:102C90004DFE9D4E30780E2829D1707800279B4D2F
:102CA0009B49362825D0372844D039281FD1882180
:102CB0002846FEF739FE38202870312068702846F3
:102CC000FEF79EFD81B2781E012300901A46284629
:102CD00000F0DAFE012806D08E490878401CC0B208
:102CE0000870032803D13770012004F0BBFF27B020
:102CF000F0BD89480088088088218448FEF714FECA
:102D00003820287030206870844A85A1A81CFEF7FE
:102D100015FB7E48FEF774FD81B20020C0430123FD
:102D200000901A46794800F0AFFE3720707079485D
:102D30000770DCE776480021415E2046FFF782FEFF
:102D400001287DD1202243217048FEF7C8FD38209C
:102D500028703020714A6870163272A1A81CFEF7E4
:102D6000EDFAC0B220212818817069480023C35EA3
:102D700066486DA214214130FEF7F6FA6348FEF76B
:102D80003FFD81B20020C043012300901A465F48F6
:102D900000F07AFE059037207070202243215B48B6
:102DA000FEF79DFD3820287030206870214660486D
:102DB00012310090FEF7FEFC5D485AA20C300777F6
:102DC0001621A81C009BFEF7CFFAC0B2502802D3F0
:102DD0002020E87502E0202128188170A01CFEF751
:102DE000F6FD64220023FEF719FA964600936278F6
:102DF00012235A434F4BD218009B049203937246FE
:102E00006B4607C34B4A4CA1483207A80692FEF70F
:102E100095FA07A8FEF7F4FC4321081A401907AAFF
:102E20003FA1FEF78BFA3948FEF7EAFC81B2002099
:102E3000C043012300901A46344800F025FE00E00C
:102E40004BE0059920220140059137207070432105
:102E50002E48FEF744FD3820287030202F4A687035
:102E60002C3230A1A81CFEF769FAC0B22021281824
:102E7000817020460A30FEF7AAFD64220023FEF787
:102E8000CDF9009001A80EC030A107A8069AFEF760
:102E900055FA07A8FEF7B4FC4321081A401907AAFF
:102EA0001FA1FEF74BFA1948FEF7AAFC81B20020D9
:102EB000C043012300901A46144800F0E5FD05992F
:102EC000084037217170012807D012490878401C4A
:102ED000C0B20870032807D00BE00D480188491CD8
:102EE00001800C48077004E009480288521C0280E7
:102EF0000F7007480021415E642900DCF7E63920A5
:102F00007070F4E6360E0010A8020010360F0010A4
:102F1000DA020010D8020010DC02001036A900000E
:102F20002573000020257300253032640000000066
:102F30008A0D001026A80000257320256C6C752CC6
:102F40002530326C6C752025730000002573202518
:102F50006C6C752C2530326C6C750000F0B5A7B028
:102F6000DC4CDD4F802107A8FEF7E0FCDB4D287824
:102F70000D2825D168780026D949362822D037284F
:102F800051D039281CD18821D648FEF7CDFCD5492F
:102F900038200870312048700846FEF731FC81B2B5
:102FA000701E012300901A46CE4800F06DFD0128E6
:102FB0002FD0CD490878401CC0B20870032828D013
:102FC00027B0F0BDC948008808808821C548FEF7B1
:102FD000ABFCC4483821017030214170C44AC5A1FE
:102FE000801CFEF7ABF9BF48FEF70AFC81B2002057
:102FF000C043012300901A46BA4800F045FD01285D
:103000000CD0B9490878401CC0B208700328D7D149
:103010000E702E70012004F025FED1E73720687075
:10302000B1480670CCE7AE480021415E2046FFF76C
:103030006DFD009061783846FFF704FD0099084067
:1030400001287DD120224321A648FEF748FCA5484F
:103050003821017030214170A1480023C35EA44A89
:10306000A0481232A4A1801CFEF768F99D4AC0B2A4
:103070002021101881703946A14812310190FEF7C5
:1030800099FB0198FEF7BCFBC0B2152800D31420B1
:103090004321091A934897A208181421019BFEF7AF
:1030A00063F99048FEF7ACFB81B20020C0430123D6
:1030B00000901A468B4800F0E7FC059037206870B6
:1030C000202243218748FEF70AFC864938200870F1
:1030D000844830214170214629310198FEF76AFB6E
:1030E000874888A20C3006777E481621801C019BF9
:1030F000FEF73AF9C0B2502803D37A492020C875A8
:1031000003E0784A2021101881707D487A781438BD
:103110004270A01C0092FEF75AFC64220023FEF7C6
:103120007DF817469E46009A12235A43704B029729
:103130005A3BD2187346039304920191009000E029
:10314000B0E06B4A70A1123A07A8FEF7F7F807A89B
:10315000FEF756FB01464320401A624F07AAC019EA
:1031600064A1FEF7EBF83846FEF74AFB81B2002077
:10317000C043012300901A46384600F085FC0599AB
:103180002022084005903720687043213846FEF71A
:10319000A6FB382038703020554A7870243259A167
:1031A000B81CFEF7CBF8C0B22021381881704C480B
:1031B0000021415E06A8FFF75BFC7D220698D20045
:1031C00000280BDA40420023C1170690FEF726F8CC
:1031D000019300920B46024650A108E00023C1175C
:1031E000FEF71CF8019300920B4602464FA107A878
:1031F000FEF7A4F807A8FEF703FB4321081AC0193D
:1032000007AA3CA1FEF79AF83648FEF7F9FA81B210
:103210000020C043009003230122324800F034FC18
:10322000059920220140059143212E48FEF757FBC6
:103230003820387030202E4A7870363231A1B81CD0
:10324000FEF77CF8C0B22021381881702C48214646
:103250000A311438FEF7AEFA29481438FEF7D0FACE
:103260004321081A264AC019143A22A1FEF766F82B
:103270001C48FEF7C5FA81B20020C043012300902C
:103280001A46184800F000FC05990840372169707B
:10329000012807D0144A1078401CC0B210700328CF
:1032A00007D00BE00E480188491C01800E480670CB
:1032B00004E00B480188491C018016700848002171
:1032C000415E1D480088814200DC79E63920687043
:1032D00076E60000F60D0010360E0010A802001071
:1032E000DA020010360F0010D8020010DC020010C5
:1032F00080A8000025730000202573253034640069
:103300008A0D001020257300257320256C6C752C08
:103310002530326C6C75202573000000252D6C6CF7
:10332000752C2530336C6C7500000000256C6C75B5
:103330002C2530336C6C7500DE02001010B504468D
:10334000812000F0E5F860001830C0B200F0E0F82D
:1033500010BD0000F7B586B00546102A03D0022440
:10336000A01C049044E00024FAE723488078C006BB
:1033700002D4032C00D104242046B021084300F0DD
:10338000C7F80798C007000F00F0C2F8079810218F
:103390004008084300F0BCF8002000900190029023
:1033A0000390002201231146834001E0002A02D14C
:1033B0002E786D1CB4460726B71A0126BE40674614
:1033C0003E4203D06F467E5C1E437E54521C520721
:1033D000491C520FC9B20829E8D3401CC0B20828C2
:1033E000DFD31021684600F0C1F8641C0498E4B2F1
:1033F0008442BAD309B0F0BD340D001070B53F4E11
:1034000003203070012200210220FFF799F93C4D82
:103410008024AC600120FEF7C7FE01221146002087
:10342000FFF78EF9012211460020FFF79DF92C616C
:10343000012208211046FFF783F9012208211046D6
:10344000FFF792F96C613078C00704D0012208219F
:103450001046FFF789F93078800704D5012211461C
:103460000020FFF781F9012205211046FFF768F9D6
:10347000234880300462012205211046FFF774F9C9
:103480000A20FFF7E3FBE22000F042F80A20FFF7F2
:10349000DDFBA22000F03CF8C82000F039F8A020A5
:1034A00000F036F8402000F033F8232000F030F828
:1034B0000020FFF743FF2C2000F02AF80A20FFF736
:1034C000C5FB2E2000F024F80A20FFF7BFFB2F20B9
:1034D00000F01EF80A20FFF7B9FBA42000F018F84E
:1034E000A62000F015F8D22000F012F8002000F01D
:1034F0000FF8AF2000F00CF870BD0000940200102F
:103500000040044001490870704700009402001018
:1035100070B5154C05462078C00704D0002208215C
:103520000120FFF721F92078800704D5002201212E
:103530001046FFF719F9002205210120FFF714F9C1
:10354000284600F08BF82078C00704D0012208211B
:103550001046FFF709F92078800704D501221146AB
:103560000020FFF701F970BD9402001070B5194EEC
:10357000054630780C46C00704D0002208210120FF
:10358000FFF7F2F83078800704D5002201211046B9
:10359000FFF7EAF8012205211046FFF7E5F805E0FC
:1035A00028786D1C00F05AF8641EE4B2002CF7D1A4
:1035B0003078C00704D0012208211046FFF7D4F864
:1035C0003078800704D5012211460020FFF7CCF89F
:1035D00070BD00009402001010B5012202210020ED
:1035E000FFF7C2F810BD10B5002202211046FFF708
:1035F000BBF810BD08B500010090411E009101D339
:103600000846FAE708BD000070B50122022100203B
:10361000FFF796F80F488025C561FFF7DDFF01220F
:103620000A210020FFF78CF80A4C11204034A062D8
:1036300001220A210020FFF797F80122092100202A
:10364000FFF77EF86562002208211046FFF778F840
:10365000256270BD004004407047704770B5072474
:10366000054601263046A040284201D0012200E054
:10367000002209210020FFF777F800220A211046D6
:10368000FFF772F801220A210020FFF76DF82046AB
:10369000641EE4B20028E5D170BD0000F8B5002634
:1036A0000746072400220A211046FFF75DF801258E
:1036B000A5403D4201D0012200E000220921002066
:1036C000FFF752F80120FFF795FF0A48C06BC005CD
:1036D00001D53543EEB201220A210020FFF744F85C
:1036E0000220FFF787FF2046641EE4B20028D9D1EC
:1036F0003046F8BDC03F005010B515490868401C61
:103700000860002001231A460C688240224203D13F
:10371000401CC0B22028F6D30E49030000F094F9F3
:103720000A060D0D0E0D0D0D0D0D130D0A48018825
:10373000002902D00188491E018010BD0120C91C4A
:10374000FEF73DF910BDC87902221043C87110BDC3
:10375000A4020010340D0010B202001000B50C4895
:1037600001210160002101620A48816B20229143FE
:1037700081630020401CFF28FCD9FFF731FA044880
:1037800080300168012212041143016000BD000075
:10379000008004400082044010B50D487D21C9001E
:1037A0000068FEF747F90B4A0B49072390420CD8F3
:1037B0001040401E48610948C2691202120A0C04F6
:1037C0002243C261002088610B610B6110BD0000C3
:1037D0009C020010FFFFFF0000E000E004ED00E0AD
:1037E0000249002088604860087370478C0B001005
:1037F000F8B54349886800250007400F402602239A
:10380000404A414C032814D002281DD006280FD06E
:1038100001280DD1486980060AD56069A2699042E5
:103820006AD220696269805C08606069401C6061DE
:10383000F8BD48699E27C0B2384203D0086869467F
:103840000870F8BDC007FCD0086869460870A06918
:10385000C02801D9FFF7C4FF207B00280BD0207BB4
:10386000012838D0207B02283AD090788007E8D40D
:10387000FFF7B6FFF8BD68460078062802D1107839
:10388000304310706846007815281FD068460078CD
:103890000228EFD190788007ECD4A5606560012004
:1038A00012E02373F8BD684600782168A268885446
:1038B000A068401CA060F8BD90781843907002E0AA
:1038C000BF210840507003202073F8BD107880217C
:1038D00008431070DAE7684600780328E3D1E0E790
:1038E000684600782168A5684855A068401CA0601B
:1038F00050784106E4D4DFE725776561A561F8BD1E
:1039000000800040340D00108C0B0010F8B5064606
:1039100001212A484D050560294A506AC008C000A7
:103920005062506A08435062906AC008C0009062BA
:10393000906A08439062234802680B031A430260AE
:103940008161214C9B21E160816920480068FEF77C
:1039500071F800093146FEF76DF8010A6160C0B2E6
:1039600020601B20E0600722A2606069009060690F
:103970004006800F0328FAD101E0206800906069BA
:10398000C007FAD11249084620380161002141617F
:10399000816101770146A8310160FFF721FF0748E7
:1039A000803805600B490868FF231B0298430323F6
:1039B0005B03184308606260F8BD000080E100E02E
:1039C000804004408080044000800040A00200103D
:1039D000AC0B001014E400E070B50D460C4C014631
:1039E000207F0128FCD0882D10D220692A46FDF7BF
:1039F00035FFA56100206061606921690918401CDC
:103A000060610878034908600120207770BD0000DC
:103A10008C0B001000800040F8B504148BB22646D1
:103A200082B25E430D141046371458433604801991
:103A30000021794116466E433714360480197941C6
:103A400026466E438919F8BD30B47446641E257845
:103A5000641CAB4200D21D46635D5B00E31830BCC2
:103A6000184730380A2801D20120704700207047DB
:103A7000034610B50020024603E09C5C6040521CE7
:103A800012B28A42F9DB10BDFFB5C1B00C46054643
:103A9000FF21013168464A9FFDF748FF0221684631
:103AA0000170224629466E46401CFDF7D7FE0320D2
:103AB00035196870601C01B2701CFFF7D9FFE41C57
:103AC000A870A4B2002F03DB0021132004F018FF1C
:103AD000FFF786FE0849BF22087810404006400ED6
:103AE000087021466846FFF777FF3946439805F08E
:103AF000ADFE45B0F0BD0000340D001070B50C46B1
:103B0000C0B00646FF21154601316846FDF70EFF9D
:103B1000002D13D0022168460170314622466E46C0
:103B2000401CFDF79BFE032035196870601C01B234
:103B3000701CFFF79DFFA870E41C04E0224631468C
:103B40006846FDF78BFEFFF74BFE1148BF22017858
:103B500011404906490E01704178402211434170DD
:103B600021466846FFF738FF0A4805F01BFF0A4C5C
:103B700005F0CAFF002802D1207B0328F8D305F006
:103B8000C3FF002802D0002040B070BD0120FBE739
:103B9000340D0010102700008C0B0010F8B55E4C9F
:103BA000082021180A7810464A78120210438A78B1
:103BB000C9781204104309060843237801B2184655
:103BC00063781B021843A378E2781B04184312069B
:103BD0001043FFF74DFF03285FD12278104662782B
:103BE00012021043A278E178120410430906084338
:103BF00000784A4D50380300FFF726FF07214F4F4A
:103C00001A0559864F00A87804210843F72420405C
:103C100010263043A8700221084600F0C7F8A878A3
:103C2000022120403043A870212004F069FE71E099
:103C3000A878FB210840A87000F0ECF86AE0A878AA
:103C4000400731D522781046627812021043A278DC
:103C5000E1781204104309060843082161184078EE
:103C60000B781A464B781B021A438B78C9781B04D1
:103C70001A432346090624780A4321465C78240225
:103C800021439C78DB78240421431B061943891CBB
:103C9000921E05F0CBFA01283CD015206946087029
:103CA00001216846FFF798FEFFF79AFDF8BDA87856
:103CB0004007F9D522781046627812021043A278A4
:103CC000E17812041043090608430821611840787E
:103CD0000B781A464B781B021A438B78C9781B0461
:103CE0001A432346090624780A4321465C782402B5
:103CF00021439C78DB78240421431B061943891C4B
:103D0000921E05F053FCCFE7A8784007CCD505F00C
:103D100047FDC9E70620C1E78C0B0010340D0010E9
:103D200010B50A4805F03EFE094C2078410605D43E
:103D3000C00903D105F0E8FE0028F6D005F0E4FE46
:103D4000002801D0002010BD012010BD1027000068
:103D5000340D0010F8B5044692300546FDF71EFEFE
:103D6000034620468130002B17D00EA2102100946C
:103D7000FDF7FAFA2846FDF711FE2946401CFDF72B
:103D80001EFE064620469630FDF708FE864203D307
:103D900029462046FDF713FEF8BD10222146FDF707
:103DA000C7FDF8BD257320202573000070B586B0CF
:103DB0000E46054614216846FDF7B8FD114C10214A
:103DC000A07820220843A07014216846FDF787FDE3
:103DD000002069460874012D334602D80022294686
:103DE00007E000221146684600F05EF800223346E4
:103DF0000121684600F058F8A078EF210840A07033
:103E000006B070BD340D001010B502210846FFF752
:103E1000CDFF10BD70B52148A0B0C07B00246D4619
:103E2000400706D500231A462946052004F0CEFC9B
:103E300004461B4E1021B0780843B070022108469A
:103E4000FFF7B4FF012C03D1684600785A2819D037
:103E5000FEF758FA02210846FFF7A8FF80216846BE
:103E6000FDF764FD0021684604F07CFD002202237A
:103E70001146684600F018F8B07808210843B07081
:103E800020B070BD0021681CFEF744FA012105A096
:103E9000FEF740FAFEF7F0F9F2E70000F40C00102C
:103EA000340D001000000000FFB581B00C4607463D
:103EB000002B10D0012B10D00320FFF723FB002C88
:103EC0000DD000263846FDF79BFCC5B2102D00D959
:103ED000102500240DE00120EFE70220EDE7102679
:103EE000F0E7385D32462146039BFEF769F9641C12
:103EF000E4B2AC42F5D305B0F0BDFFB581B01F0010
:103F000016460C4609D0012F09D00320FFF7FAFA14
:103F1000102C06DB0126103C05E00120F6E702200C
:103F2000F4E7002E04D000252046304302D005E0FF
:103F30001025F9E728463946FFF738FF00232A46BF
:103F400021460198FEF73CF905B0F0BDFFB5002011
:103F5000E5B0054603900190012767986E9E3C46A8
:103F6000082801D3400702D0002069B0F0BDFF222D
:103F7000511C24A8FDF7B3FC659824A940190090B2
:103F8000679AFEF7ADFA00280FD0012000032D1824
:103F90006898290B81426DD1572E7CD0772E7AD02C
:103FA000522E69D0722EFCD08FE001200003679959
:103FB000FDF740FDC0B2FF220290511C24A8FDF77E
:103FC0008EFC00240AE0679800996043401824A9F9
:103FD000679AFEF785FA012803D0641C0298844290
:103FE000F1D30298844212D3572E01D0772E12D1EA
:103FF000012003900098000B0190012000032D1870
:104000006898290B814200D10025002406E0522E39
:1040100001D0722E02D1002C00D0641E67986599E1
:104020006043491940180090572E06D0772E04D0CF
:10403000522E24D0722E22D050E0679A6699FEF755
:1040400073FA002808D0039800280BD0019880B29A
:10405000FEF70FFB22A106E025A104A8FDF76EF9EB
:10406000002704E029A104A8FDF768F901272A0B1D
:10407000234602E02FE00EE01DE029A107E0679A49
:104080006699FEF7DCFA01272A0B23462EA104A825
:10409000FDF754F922E065AB07CBFEF745FA00289F
:1040A00007D001273B4633A104A8659AFDF746F9DE
:1040B0000BE00027F6E765AB07CBFEF7C0FA012758
:1040C00036A104A8659AFDF739F92A463BA104A850
:1040D000FDF734F902E0002C00D048E7384644E709
:1040E000457261736520426C6F636B200D0A00009E
:1040F0004572726F722057726974652053657269D8
:10410000616C20466C617368200D0A004E6F74204C
:10411000457261736520426C6F636B200D0A00006D
:10412000536563746F725772697465203D2530342E
:10413000642C20526567203D253034642C61646412
:10414000203D253038580000536563746F7220524B
:10415000656164203D20253034642C205265672041
:104160003D20253034642C20616464203D202530BE
:10417000385800005772697465204669727473205C
:10418000526567202D2041646472203D202530381F
:1041900058202D2025640D0A00000000526561643E
:1041A00020466972747320526567202D2041646433
:1041B00072203D20253038580D0A00005061676597
:1041C000204164647265737320436865636B2042A9
:1041D0006C616E6B203D202530385800F7B50746DE
:1041E0000121000B0903A0B01546884202D9002026
:1041F00023B0F0BD3C467E1818E0FF2280216846BF
:10420000FDF76DFBAAB269462046FEF769F9012861
:1042100003D06419B44209D106E0BC4204D1A9B26A
:104220002198FDF781FBE2E7641B01E0B442E4D38F
:10423000AAB220462199FEF702FA0120D8E7000031
:10424000F7B505461948A0B0854204D801202E0BC9
:104250000003864202D9002023B0F0BD2F182C465F
:1042600000200DE0FF2280216846FDF738FB6946FB
:104270002046229AFEF734F9012809D022996418C1
:10428000BC42EFD3002803D12C46B0B2FEF7F1F9BF
:104290002046229A2199FEF723F90128DCD12046F5
:1042A000229A2199FEF740F9D6E70000FF23F40097
:1042B000F8B524480078002822D12348FDF7A0FA59
:1042C00004281DD102F0BCFB1F481230FDF77FFB14
:1042D00004460D461D48FDF77AFB0022D243401EDE
:1042E00051411B4F4200D219137AD6791A02324338
:1042F0000026544075402C4303D0002001F0ACFC54
:10430000F8BD124AFDF780FB124C352020700F4893
:10431000FDF744FB4000C119087AC97902020A433B
:104320000DA1601CFDF70AF82046FDF769FA81B27D
:104330000323012220460096FFF7A6FB01484670A2
:10434000F8BD0000A80200103D0D0010760D001011
:10435000F40C0010360F001025303564000000000A
:1043600038B5124CFB212078114D08402070287878
:1043700000281AD06878042817D8A07801210843AB
:10438000A070FDF7BFFF1A2068702078F721400861
:1043900040000840207000F0F5F900200346014677
:1043A00000900622232002F08DFC38BD340D001051
:1043B000A802001008B510480178002917D14078EC
:1043C000002814D10D49302008700D48C07B00072B
:1043D000C00F0DD0002807D01420012300901A46EA
:1043E00019460648FFF750FB012003F03BFC08BDCF
:1043F0000020C043F1E70000A8020010360F0010B3
:10440000F40C0010F8B5264E244D30780C2844D119
:1044100024480746FDF7C2FA01462846FEF776FB18
:10442000002401281DD13846FDF7B8FA0146FF22C5
:104430002846FEF7D5FA1C4D012806D02878401CE6
:10444000C0B2287003280BD014E03846FDF7BFFA3D
:104450000022401C51413A46FDF7D6FA2C7009E083
:104460002C703846FDF7B3FA0022401C51413A4601
:10447000FDF7CAFA3846FDF7AAFA0C4A504008433D
:104480000BD1347000212C2004F03AFA7D20C000BA
:10449000FEF7DCFB012003F0E5FBF8BDF60D001094
:1044A000A8020010950D0010D8020010B90B0000F2
:1044B000F8B5224E204D30780F283CD120480746D1
:1044C000FDF76CFA01462846FEF79CFA0024012805
:1044D0001DD13846FDF762FA0146FF222846FEF755
:1044E0002FFA184D012806D02878401CC0B2287039
:1044F00003280BD014E03846FDF769FA0022401C6F
:1045000051413A46FDF780FA2C7009E02C7038468C
:10451000FDF75DFA0022401C51413A46FDF774FA5E
:104520003846FDF754FA11225040084303D1347045
:10453000012003F097FBF8BDF60D0010A802001053
:10454000950D0010D8020010F8B53A4F3878C00722
:1045500019D139480078401E022814D902F070FAA7
:104560003648FDF734FA034604250022281A8A410A
:104570000AD20021162004F0C3F9012002F0EEF95E
:10458000002001F069FBF8BD18462D4AFDF73CFA02
:1045900005460E462A48FDF71AFA0022294C084320
:1045A00002D1A079012819D0284631460843EAD023
:1045B0000023681F9941E6D215460092062219464B
:1045C000232002F07FFBA5713878F72140084000D6
:1045D0000840387018481B214170F8BD1A48362130
:1045E000017042701948A271C07B0007C00F1AD039
:1045F00000280AD01448FDF703F981B21420009076
:10460000032301221048FFF73FFA0021222004F083
:1046100077F90F48FEF71AFB012002F09FF90020FE
:1046200003F020FBF8BD0848FDF7EAF881B200204E
:10463000C043E4E7340D0010A80200104F0D001035
:10464000760D00108E100010360F0010F40C0010C4
:10465000DC05000002490020487302494873704796
:10466000DE0F00100E100010F8B53449DF26487830
:10467000334F0025334C232802D0401E032817D87F
:10468000A0783040A0700D7000204D70014603C727
:1046900002462D4806C000212C480A4606C0FFF7F6
:1046A000D9FF00F06FF800210220FFF77FFB42E006
:1046B00008780B2826D00B20087031204870002184
:1046C0000220FFF773FB0020014603C702461E4885
:1046D00006C000211D480A4606C0A07820210843D4
:1046E000A0701B48F922C17B490849001140C173E1
:1046F000FDF708FE00231A4619462420009502F013
:10470000E1FAF8BD0D704D7000210220FFF74EFB5D
:10471000FFF7A0FF00F036F8A07830223040A070FC
:104720000A210C48FDF7DBF830220A210A48FDF780
:10473000D6F8FDF7A1FDFFF76DFBF8BDA80200104C
:10474000B8020010340D0010C0020010C8020010A2
:104750003E100010BE0F0010EE0F001010B5012427
:1047600002F01CF90648817B027C914200D90024AA
:10477000C17B407C814200D90024204610BD00004E
:104780003D0D00100448002141700170034801787C
:104790004908490001707047AA020010340D00104A
:1047A000F8B54B4800252C460746FDF729F80028A8
:1047B00025D088214748FDF7B7F846496920464E7D
:1047C0000870707826380300FFF73EF90604383C7D
:1047D00045494D193846FDF713F8002804D03846EE
:1047E000FDF70EF80A280BD90021162004F088F8EE
:1047F0003A48FEF72BFA2620707001F0BDFEF8BD96
:1048000027250C2436A13348FDF71CF839463148DA
:10481000FDF718F82F48FCF7F3FF81B20020C043E2
:10482000012300901A462B48FFF72EF901281CD0CF
:10483000002003F017FA00203070F8BD28250E2460
:1048400028A1E0E73078022801D0032801D12925EA
:104850000F2425A1D7E72A25102427A1D3E72B254C
:10486000112426A1CFE726A1CDE7264F01213878D4
:104870000843F72108403870012002F06FF8002C3F
:104880000FD00220002300901A461946204602F05D
:1048900019FA387801210843F721084038707570FB
:1048A000F8BDFFF76FFF012002F058F8B878082133
:1048B00008433978F722490849001140397010211E
:1048C0000843B87000207070FFF7A4FAE7E7000013
:1048D000830D0010360F0010A8020010DC05000048
:1048E000522A0000532A0000303044697265636325
:1048F00069F36E3A20000000462A0000442A0000B6
:10490000492A0000340D0010F0B504465A485B4DAA
:10491000C17985B0CA071AD18A0718D42A78531EDC
:10492000032B01D30B2A66D16B78002B01D00B2A05
:1049300061D1372C02D06B2C02D004E0012200E0C0
:1049400002221143C171C9B204221143C171080787
:1049500001D4332C4FD10020494E014603C64948AB
:10496000002704704848083EC07B0007C00F00289D
:1049700043D040D01420012300901A4619464148E4
:10498000FFF782F8012836D1372C68D06B2C6CD019
:10499000332C30D103F02CFE00286AD0FDF7B2FC96
:1049A00002210846FFF702FA10213648FCF7BCFF47
:1049B000202210213548FCF792FF03CE6422002309
:1049C000FCF72CFC6C460FC4314B32A1DA1F2D488A
:1049D000FCF7B4FC2B48FCF713FF1021091A2B48F5
:1049E000284A081830A1FCF7A9FC0022022311462E
:1049F0002648FFF759FA05B0F0BD0020C043012357
:104A000000901A4619461F48FFF73EF80128F2D1D8
:104A1000372C24D06B2C28D0332CECD103F0E8FDBC
:104A20000028E8D0FDF76EFC02210846FFF7BEF92A
:104A300088211448FCF778FF202210211348FCF746
:104A40004EFF03CE64220023FCF7E8FB6C460FC444
:104A50000F4A16A1D21F0B48FCF770FCBAE72F7063
:104A6000002003F0FFF86F70C5E7002003F0FAF8AC
:104A7000C1E7FFF7CFF9BEE78E100010A8020010C3
:104A8000C8020010360F0010F40C0010F60D0010D4
:104A90001FA80000257320257320256C6C752C251C
:104AA00030326C6C750000002573000025732025E2
:104AB0006C6C752C2530326C6C750000F0B5A7B0AD
:104AC0000024802107A8FCF731FF88216948FCF702
:104AD0002BFF6948694D6A4E01788027A878654B9D
:104AE000727802297FD003297CD06649C007895C8F
:104AF000197001D03943197061480C300746FCF732
:104B000066FF02460B4660A107A8FCF717FC07A941
:104B10005848FCF797FE301DFCF759FF02460B463C
:104B20005BA107A8FCF70AFC07A95248FCF78AFE1C
:104B30005349504814310691FCF784FE301DFCF7B0
:104B40002DFF55490860A878C00738465CD0FCF7AF
:104B50003EFF64220023FCF761FB02900D460193A7
:104B60000092301DFCF733FF7D22D2000023FCF7BA
:104B700055FB1F460B4616460099019A0096059272
:104B8000049101970395024644A107A8FCF7D6FBC0
:104B9000002107A8FDF7BEFB49A107A8069AFCF76C
:104BA000CDFB012107A8FDF7B5FB4648C07B0007F8
:104BB000C00F48D000280DD02E48FCF721FE81B24E
:104BC00014200090032301222A48FEF75DFF0446CB
:104BD00001283FD003F00CFD00283ED00221122016
:104BE0003DE000E005E060211970C00707D0E0203B
:104BF00004E064211970C00701D0E4201870581C2B
:104C000031A1FCF79BFB77E7FCF7E1FE6422002370
:104C1000FCF704FB02900D4601930092301DFCF757
:104C2000D6FE7D22D2000023FCF7F8FA1F460B4681
:104C300016460099019A00960592049101970395F2
:104C4000024622A1A1E70B48FCF7DAFD81B2002061
:104C5000C043B6E7FDF710FB09E00021172003F081
:104C60004FFEFF20F530FDF7F1FFFFF7D3F82046A8
:104C700027B0F0BD360F0010A8020010340D001050
:104C8000760D0010AC020010253031306C6C6400E1
:104C90002530386C6C640000E402001020416E7511
:104CA0006C61646F3A20256C6C752C2530336C6C0C
:104CB00075207820256C6C752C2530326C6C750055
:104CC00020257300F40C00102564000020256C6C76
:104CD000752C2530336C6C75207820256C6C752C08
:104CE0002530326C6C75000010B500231A460A4955
:104CF000042003F06BFD084C20785A280BD040218B
:104D00002046FCF711FE5A20207001230022214684
:104D1000042003F05BFD10BDF40C001070B51D48BD
:104D20008022C1791C4D1143C17128780B2828D0ED
:104D30006878232825D002210846FFF737F801F0CC
:104D40007FFE1648FCF72AFE154CA070000AE070A2
:104D5000002001F003FEFFF715FD04206870E078E5
:104D6000A17800020843632808D800F0C5FE002897
:104D700004D0FFF7A3FE012804D008E0002000F0D3
:104D80006BFF70BD2878002801D101202870002019
:104D9000687070BD8E100010A80200104F0D00103A
:104DA000760D001010B5012001F0D8FDFFF7EAFCE8
:104DB0000221072003F0A4FD0649052008700648DB
:104DC00040780107054801D4082100E00A2141701C
:104DD00010BD0000AA020010340D0010A80200103F
:104DE000F8B5204C054620780B281DD100261E481A
:104DF000002D02D0012D0BD016E02C214173084666
:104E000001F02EF900231A4619462620009609E0E3
:104E10002D214173084601F023F900231A46194653
:104E20002720009601F04EFF2078401E032818D25C
:104E30006078401E032814D90C4C202120780022D1
:104E4000084320706078F7210840E907090F0843FC
:104E500060700121064804F01BF920780221084304
:104E60002070F8BDA80200100E100010340D0010C4
:104E7000480B0010F0B585B004210498FCF754FDF0
:104E80003C480B210170002141703B483B4F0168B9
:104E9000406801434DD000252C4637493846FDF780
:104EA0006BFA00260391029003CF0246083F0A43A3
:104EB0001CD00A220023FCF799F979603860002E93
:104EC00004D0012E08D0022E2ED00FE02A492B4804
:104ED000FDF752FA642204E027492848FDF74CFA0E
:104EE0000A220023FCF782F945194C4103CF083F01
:104EF000084303D0761CF6B2032ED5D30095019457
:104F00001FA1039B029A0498FCF718FA00231A4683
:104F100001210498FEF7C8FF0298039942191B4823
:104F20006141026041600EE013491448FDF724FA24
:104F3000DAE70021252003F0E3FC1548FDF786FEA3
:104F4000002002F08FFE1348DF22817800231140F9
:104F500081701148FF2141730C497D2203C9D200A1
:104F6000FCF744F903C7002103480A4606C005B010
:104F7000F0BD0000A8020010C0020010B80200102E
:104F8000256C6C752C2530336C6C7500C8020010D4
:104F9000DC050000340D0010DE0F001070B55A4C17
:104FA0006178481E03283ED9584D2878C00711D093
:104FB0005748427A002A0DD0067A03460D33F25440
:104FC000027A521C0272002242720273514A107815
:104FD000401C10704C480B000078FEF735FD412254
:104FE00024242424393C2F2D34313F3F555A615E0F
:104FF000246D706467737376767688858B8E9124C2
:1050000024852524245252525252522424242424EA
:10501000244C244F24242424242424247357242877
:10502000240000F033FB70BD03F0CAFE70BD03F036
:10503000E3FF0120207070BD002102E0002103E0A9
:105040000121002001E00121012001F0C1FB70BD20
:1050500004F0CEFB70BD00F04FFF70BD052804D0FA
:10506000102805D000F0D8FE70BD00F059FE70BDCC
:10507000FDF774FF70BD00F0D9F870BD00F0B2F814
:1050800070BDFFF78DFB70BD002003E001F0AAFEAC
:1050900070BD012002F090F970BD02F0E1F970BD21
:1050A00002F03EFA70BD01F023FF70BD01F020FF59
:1050B000002002F0D7FD70BD02F094FA70BD02F03E
:1050C000DBF870BD0828FAD1F6E7A878C00705D14B
:1050D0001148C079C10701D1800702D503F038FA21
:1050E00070BD00F081FB70BD01F086FF70BDFFF761
:1050F000DFF870BD02F00AF870BD02F063F870BD11
:1051000002F052FA70BD0000A8020010340D001029
:10511000760D0010AA0200108E10001070B5164C0B
:10512000144DE178A0780902014310291ED82846C1
:10513000FDF768FC7D26F600012809D1E078A27809
:1051400001021143FF222846FDF7FAFB012802D095
:1051500000212E2001E000212C2003F0D1FB30465D
:10516000FDF774FD012002F07DFD70BD00F03AF8FE
:10517000F8E70000F60D0010760D001070B5174C22
:10518000154DE078A27801021143154A481E90425D
:105190001ED82846FDF7BAFC7D26F600012809D165
:1051A000E078A27801021143FF222846FDF718FC9F
:1051B000012802D000212E2001E000212C2003F044
:1051C0009FFB3046FDF742FD012002F04BFD70BD14
:1051D00000F02CF8F8E70000F60D0010760D001036
:1051E000B70B000038B50F493525C8790E4C42067B
:1051F000002A11DB3422627040221043C871012062
:1052000001F0ACFB002065700346014600900422CB
:10521000182001F057FD38BDBF2265701040C871DD
:1052200038BD00008E100010A802001038B50F49DC
:105230003325C8790E4C8206002A11DB32226270B7
:1052400020221043C871012001F088FB0020657006
:105250000346014600900422182001F033FD38BDBA
:10526000DF2265701040C87138BD00008E1000103C
:10527000A802001070B504460022012111A0FEF71B
:105280003DFC00281CD0104D2878014668780002AB
:105290000143A87800040143E8782A780006014316
:1052A0000878030211466A7812021143AA78E87856
:1052B0001204114300060143487803432380012070
:1052C00070BD0000050000008C0B001008B50B49F4
:1052D000452008700A48C07B0007C00F0AD000288C
:1052E00007D01420012300901A4619460348FEF700
:1052F000CBFB08BD0020C043F4E70000360F0010D0
:10530000F40C0010F0B5CD4E0D46CD4F044671782B
:10531000B87885B01A2902D1317801290FD0082137
:105320000843B870FCF7EEFF707825287ED023285C
:105330007CD07878800679D4302C03D005E0F72132
:105340000840EEE7BF4901208871BF480078002877
:1053500003D100210846FEF729FD01F01FFBBB48E1
:10536000407C002801D12C2C60D03078012802D15B
:105370000021FEF71BFDB248B44F41780A37880779
:10538000002854DBB1482C2C027C03927ED0817B18
:1053900091424BD04454817B491C81732921AC48F4
:1053A000FCF7C2FAA948FCF72BFA0246A749A8481D
:1053B000FCF754FA04210298FCF7B6FAA448FCF76B
:1053C000CCF9C11764220023FBF728FF1746A04839
:1053D0000093FCF7C2F9C11764220023FBF71EFFFC
:1053E000009B019302460B4600979AA10298FBF797
:1053F000A5FF7078012808D830780B2805D0002345
:105400001A4619460298FEF74FFD8D4880788106AE
:1054100001D4400607D58D48817B92480C54401C2E
:10542000417E491C4176012D33D0D2E080E0874A8D
:105430002C2C507C03907BD0D07B0399884277D072
:10544000C4551046C07B1146401CC8730421284631
:10545000FCF76AFA7D48807B0028707869D00128C3
:105460000ED830780B280BD03B46784A7EA12846D0
:10547000FBF764FF00231A4619462846FEF714FD81
:105480007278002A04D030780B2800E052E074D003
:1054900088E06E4A0399907B88426FD211460C5483
:1054A000887B401C887329216948FCF73DFA6748CE
:1054B000FCF7A6F9024665496548FCF7CFF90421D7
:1054C0000298FCF731FA6248FCF747F9C1176422E9
:1054D0000023FBF7A3FE17465D480093FCF73DF958
:1054E000C11764220023FBF799FE009B019302463B
:1054F0000B46009757A10298FBF720FF7078012810
:1055000008D830780B2805D000231A46194602988F
:10551000FEF7CAFC4A488078810601D4400659D576
:105520004A48817B52484454417E491C417651E0AF
:1055300081E024E002231943414ADF2319405170DE
:10554000807B0028707810D0012843D830780B2851
:1055500040D03E4A47A12846FBF7F0FE00231A46FA
:1055600019462846FEF7A0FC34E0012832D83078EE
:105570000B282FD03A4641A1EDE70CE029E00128A5
:1055800000D97DE730780B28FBD03A463DA128466C
:10559000FBF7D4FE6EE72D48817B35484454817E6D
:1055A000491C8176012D14D1284B0399D87B884260
:1055B0000FD2C455D87B401CD873002A0AD030784B
:1055C0000B2807D1997B2A484454817E491C817657
:1055D00000E00025002722E0194800788007707855
:1055E0000AD5002801D0012802D130780B2811D12A
:1055F00015480223017809E0002801D0012802D1D2
:1056000030780B2806D1104800230178002220466C
:10561000FEF773FC0C480178491C01707F1CAF42F7
:10562000DAD970783D2806D03E2804D0401F1B28C8
:1056300001D30120707005B0F0BD0000A802001079
:10564000340D00108E100010AA0200103D0D001045
:105650004A12001025306C6C752C2530312E326CBE
:105660006C750000ED0F001025732C2573000000F1
:10567000EE0F001025732C3030000000302C30303D
:1056800025730000302C257300000000F8B5134C82
:10569000207804281ED1124874210170002545701D
:1056A0001048114EC07BEF270007C00F002812D012
:1056B00010D01420012300901A4619460848FEF71E
:1056C000E3F9012806D12570707838407070012008
:1056D00002F0C8FAF8BD0020C043EBE7A8020010B2
:1056E000360F0010F40C0010340D0010F8B500282F
:1056F00034D01FA21FA12048FBF720FE1E48FCF754
:105700007FF81E4EC4B23278632A26D81A4D1CA1E7
:105710002819FBF713FEA41CE4B2701CFCF757F920
:105720002C1902460B4618A12046FBF707FE184825
:10573000C07B0007C00F13D000280ED02846FCF70E
:105740005FF881B21420012300901A460A48FEF740
:105750009BF9012801D1FFF799FFF8BD0DA2C9E718
:105760000548FCF74DF881B20020C043EBE700008C
:105770003930000025730000360F0010760D001040
:105780002530326400000000253031326C6C64003A
:10579000F40C00103931000070B5104C054620782B
:1057A000002819D16078002816D1012001F0D6F820
:1057B000FEF7E8FF0021062003F0A2F808490520C3
:1057C00008700421217060700648EF224178114072
:1057D000EA07D20E1143417070BD0000A80200100C
:1057E000AA020010340D001010B51B48FCF708F891
:1057F00004282CD101F024F91848194C4178164896
:1058000012301A2904D0192908D0182910D01FE005
:10581000FCF7C4F881B2607922790EE0FCF7BEF89B
:1058200081B20F48401E0279C3781002184306E087
:10583000FCF7B4F881B2607822780002104381420C
:1058400006D1084800220121006803F021FC10BDA8
:10585000002000F001FA10BD3D0D0010A80200105C
:10586000F50C0010AC0600103EB5254A137B5372B0
:10587000917A00292BD00446323C072C2AD83628AE
:1058800001D104291CD01C465B00643B0F34E31893
:105890001B4C5372237BA47A1D465B000F35643B7F
:1058A000EB18DBB21B19382802D0392800D05B1E58
:1058B0005372144B1B785B0709D5362802D003E0DE
:1058C000D123F5E7042903D0507A203050723EBD31
:1058D000F120FBE731280BD030280ED02C28F6D150
:1058E00009A009C80193009009486844085CEDE7E5
:1058F00008A019C86D4619C5F6E709A0F1E7000030
:10590000760D0010340D00103C3E7C2B2D2F5F3A9D
:10591000FFFFFFFF203F28292A405B5D7E0000003B
:105920002425232221272E00F8B5334D4921334E5B
:1059300029707178C9090FD033216970A870304877
:10594000FCF745F802460B46E81C2EA1FBF7F6FCD7
:105950007078C00902D00EE03221EEE726496B468E
:10596000C81CC979197042795A70EB780371437871
:105970004371E970427022480830FCF728F81E4C49
:10598000024609340B461FA12046FBF7D7FC70786E
:10599000C0090BD118486A46407B1070617951707C
:1059A0006A7A2271627862716872617017480024A5
:1059B000C07B174D0007C00F0827002815D013D053
:1059C0000D48FBF71DFF81B21420012300901A46F9
:1059D0000948FEF759F8012806D1FEF71BFA2C708A
:1059E0006C70B0783843B070F8BD0348FBF708FF1F
:1059F00081B20020C043E8E7360F0010340D0010DC
:105A0000950D00102530366C6C640000F40C00100D
:105A1000A802001008B512494878232811D0097847
:105A20000B290FD0401E03280BD90E4961200870A6
:105A30000020C04301220090002311460948FEF7D0
:105A400023F808BD08492F20487300F009FB002007
:105A50000346024601460090292001F033F908BDB3
:105A6000A8020010360F00100E10001070B51F486D
:105A7000FBF7C6FE29211E48FBF756FF1B48FBF724
:105A8000BFFE024619491A48FBF7E8FE1848FBF723
:105A900064FE7D21C900FDF7BFFF164A1446FBF7DF
:105AA000B3FF29211248FBF73FFF10480A30054693
:105AB000FBF7A6FE024629460D48FBF7CFFE0C4831
:105AC000FBF74BFE6421FDF7A7FF0A4A0832164692
:105AD000FBF79AFF2046FBF77AFF04460D46304657
:105AE000FBF775FF2018694170BD00003D0D0010E7
:105AF0004A1200100B100010F0B591B00146684634
:105B0000FCF7A0FF0646224D0020287508A948761C
:105B1000284614300E39FBF795FE694648786870C0
:105B2000032800D900261B48194F44780C37032C52
:105B30000DD03846FBF74BFF084306D100A80230D2
:105B4000FBF745FF3A46FBF75FFF022C0AD0281D02
:105B5000FBF73DFF084305D17D202A1DC000002131
:105B6000FBF752FF281DFBF732FF084300D1002648
:105B700002A80230FBF72BFF04460D463846FBF720
:105B800026FF201A8D4100D20026304611B0F0BD0C
:105B9000760D0010A8020010F0B5A1B005468021D6
:105BA00001A8FBF7C3FE264C29462046FCF7AEFFB2
:105BB0000546244F002038755121085522483E469D
:105BC000C07B14368007002805DA22460A321FA15E
:105BD0003046FBF7B3FB214629313046FBF732FE56
:105BE0001C484678032E0ED016480C300090FBF768
:105BF000EEFE084305D1A01CFBF7E9FE009AFBF777
:105C000003FF022E0AD0381DFBF7E1FE084305D141
:105C10007D203A1DC0000021FBF7F6FE381DFBF782
:105C2000D6FE084300D1002501A962780023012097
:105C300002F0CCFD694649797970284021B0F0BD69
:105C4000F60D0010760D0010F40C00107C25737C0E
:105C500000000000A802001010B504460021162024
:105C600002F04EFE1A48FCF7F1FF1A4A117800299B
:105C700026D004290CD005290ED0082912D00A29D3
:105C800010D0072914D0092916D003F039FA10BD15
:105C900000220121104802E0002201210F4803F0F8
:105CA000F7F910BD08201070002201210C48F6E71A
:105CB000002201210B48F2E7002201210A48EEE709
:105CC000012000F04BFE204601F0CCFF10BD00008B
:105CD000DC050000E002001058070010B8070010B3
:105CE000FC080010380900106809001070B50B4E50
:105CF0007078411E03290FD93178491E02290BD92A
:105D00000D38162808D900242325757003F0F8F9FA
:105D1000641CE4B2022CF8D370BD0000A80200108D
:105D2000FEB5374F0126387805285DD178780B28E5
:105D300001D00C2858D100F083FE3248FBF747FE13
:105D4000314A0192FBF760FE05462F480C467978F0
:105D5000083800900B2907D0FBF739FE084318D00C
:105D60002846204315D015E0FBF731FE002202F053
:105D700021FBC407E40F0198FBF729FE002202F083
:105D800019FB204006461F481238817B007C814267
:105D900000D000260198FBF71AFE04460D46009835
:105DA000FBF715FE201A8D4126D3002E24D0FEF7D6
:105DB000E9FC002000F0D2FD1448202201781143B4
:105DC000F722114049084900017079780B29417880
:105DD0000BD08022114341700806C00F08D000226A
:105DE00001210B4803F054F9FEBD4906490EF2E7C4
:105DF000002201210748F5E70120FFF72DFFFEBD36
:105E0000A80200104F0D00109D0D0010340D001061
:105E1000E009001098090010FEB5324F01263878CD
:105E2000062856D178780B2801D00C2851D100F0E3
:105E300007FE2D48FBF7CBFD2C4A0192FBF7E4FD52
:105E400005462A480C467978083800900B2907D077
:105E5000FBF7BDFD084318D02846204315D015E0B8
:105E6000FBF7B5FD002202F0A5FAC407E40F019884
:105E7000FBF7ADFD002202F09DFA204006461A48CD
:105E80001238817B007C814200D000260198FBF70C
:105E90009EFD04460D460098FBF799FD201A8D41A2
:105EA0001BD3002E19D0FEF76DFC002000F056FD2C
:105EB0000F48202201781143017079780B2941782D
:105EC00008D080221143417000220221094803F0CA
:105ED000DFF8FEBD4906490EF5E70120FFF7BCFEDD
:105EE000FEBD0000A80200104F0D00109D0D001017
:105EF000340D0010580A001070B500F0A1FD1548CF
:105F0000FBF765FD64220023FBF770F9124E721C4B
:105F1000FBF77AFD701CFBF75AFD04460D480D4651
:105F20000830FBF754FD20186941721CFBF76CFD2B
:105F30000A480078042802D000F076FA70BD0848BC
:105F40004078C00601D4002000E00120FFF7CEFB1E
:105F500070BD00004F0D0010760D0010A80200105B
:105F6000340D00107CB504213846FBF7DDFC2648D3
:105F70000B21017000214170244D254C03CD0CCC28
:105F8000083C083DFBF732F9224E234A03C60023A2
:105F9000083EFBF743F90193009202460B461FA10E
:105FA0003846FBF7CBF906CD1F4B083D0020591AA8
:105FB00090410CD306CC083C0020591A904106D3DE
:105FC00000231A4601213846FDF76EFF09E0002143
:105FD000252002F095FC1548FCF738FE002001F062
:105FE00041FE1349DF228878002310408870114851
:105FF000FF2141737D2203CED200FBF70FF903C5C9
:106000000020014603C47CBDA8020010B8020010A5
:10601000C0020010C802001040420F00256C6C75D1
:106020002C2530336C6C7500FFE0F505DC050000B5
:10603000340D0010DE0F001070B5084C0546617875
:1060400023290AD0491E032907D92078002804D122
:10605000FCF758F900F090FA257070BDA802001006
:10606000F1B5454DFB262878444F30402870787BA9
:10607000434CFF2805D10120607000210220FDF76C
:1060800095FE3F4800780B2857D13E4CE07B4007F7
:106090000AD5FFF7EBFC084303D1E07B022108435C
:1060A000E073E07B3040E073E07B800703D4FFF7D0
:1060B000DDFC354A03C2E07B02210843E07300980F
:1060C000324C2C2805D02D2803D02E2801D02F2883
:1060D00005D12B4948706073002000F03FFC264832
:1060E000FD2241781140417000F0AAFC2848FBF7DE
:1060F0006EFC084322D00021162002F001FC012092
:1061000000F02CFC0020FFF7A7FD1B49DD2248789A
:106110001040487039211F48FBF706FC18490B2036
:10612000087000982C2805D02D2803D02E2801D0E7
:106130002F2802D1487078736073F8BD154812306B
:10614000FBF745FC7D22D2000023FBF74FF8104AF5
:10615000FBF75AFC0E48FBF73AFC05460D480E4685
:106160001A30FBF734FC28187141094AFBF74CFC44
:10617000002000F0F3FBC8E7340D0010DE0F001024
:10618000A80200103E100010B80200100E100010FF
:106190007A0D00103D0D0010F8B5FFF767FC214D9A
:1061A000002603C53346324631462B20083D009673
:1061B00000F088FD002000F0D1FB1B48407B2E281A
:1061C00006D02F2807D02D2808D02C2818D019E069
:1061D000FFF7C8FE16E0FEF74DFE13E013484168D6
:1061E000046821CD0A46231AAA4103D302462B464E
:1061F000204602E00B462246294601F0E9FC01E078
:1062000001F014FE0A480B2101704670002000F0D6
:10621000A5FB0848FD22C17B114004221143C17334
:10622000F8BD0000C00200100E100010B8020010EF
:10623000A80200103E10001038B5374D68780C28C1
:1062400040D12878102801D011283BD100F0F8FB6C
:106250003248FBF7A3FB324C002120800220FDF7DF
:10626000A5FDFCF74FF82F480188002907D02088AA
:10627000002804D0814202D82B49884207D300214C
:106280000220FDF793FD0020FFF7E6FC38BD2878DB
:106290000021102802D0112809D011E0002300911C
:1062A0001A461946312000F00DFD0D2007E00023AD
:1062B00000911A461946322000F004FD0E20287085
:1062C0003620687029780B2917D1184CE07BC2075B
:1062D00007D0800705D4FEF7C7F9E07B40084000EF
:1062E00009E01348407B2C38032806D8FFF754FFF9
:1062F000E07B01210843E07338BD6878421E032A21
:10630000FAD9002805D1042903D0012000F0E4F8CF
:1063100038BDFEF743FE38BDA80200104F0D001037
:10632000DE020010DC020010B90B00003E1000106D
:106330000E10001010B50446012000F00FFBFEF710
:1063400021FA0221062002F0DBFA0848062101703A
:10635000074A052151700749152C487803D00422BB
:106360001043487010BDFB221040FAE7AA0200104B
:10637000A8020010340D001070B52548254CC379D3
:1063800025489A064178254D002A01DA012909D0CD
:106390005A0601D5012912D04A1E032A25D90029FF
:1063A00032D123E03321417000F04AFB2846FBF74D
:1063B000F5FAA070000AE070FEF7E0FE12E0352169
:1063C000417000F03DFB2846FBF701FB0022D24361
:1063D000401E51412A46FBF717FBA070000AE070EF
:1063E000FEF79CFE002000F0B9FA70BD007804288A
:1063F0000AD00B492022087810430870002201219E
:10640000084802F045FE70BDFEF7C8FD70BD0000F3
:106410008E100010760D0010A80200104F0D001015
:10642000340D00100C0B0010F8B5224C3220224D18
:1064300020702A78632A34D8601C20A1FAF77EFFE6
:10644000681CFBF7C4FA02460B46E01C1DA1FAF7D4
:1064500075FF1E480025C07B1D4E0007C00F1D4C58
:10646000EF2700281ED01CD01248FBF7C9F981B2D3
:106470001420012300901A460E48FDF705FB012861
:106480000FD1FDF7C7FC35707570207808213840B2
:106490002070A0780843A070FFF7CEFE002001F026
:1064A000E1FBF8BD0348FBF7ABF981B20020C04324
:1064B000DFE70000360F0010760D00102530326443
:1064C00000000000253031326C6C6400F40C0010C8
:1064D000A8020010340D001038B521490A78521E68
:1064E000032A0ED302F084F8012809D102211220D8
:1064F00002F006FA7D20C000FCF7A8FBFDF78AFC3D
:1065000038BD4978002901D00529F9D13121154B31
:1065100063281970F4D8024613A1581CFAF70EFF2D
:106520001348144CC07B08250007C00F002813D067
:10653000E6D01420012300901A4603210948FDF7F4
:10654000A3FA0128DCD1FDF765FC012001F08AFBEC
:10655000A0782843A07038BD0020C043EAE70000BF
:10656000A8020010360F0010253032640000000031
:10657000F40C0010340D001038B5104C607823284E
:106580001BD0401E032818D92078002815D1FBF70E
:10659000B9FE0220002300901A4619460D2000F093
:1065A00091FB012000F0DAF9262005496070087897
:1065B00001221043F7221040087038BDA8020010D5
:1065C000340D001038B52348234DC1794906490ED2
:1065D000C17128780B2826D06878232823D01F483B
:1065E000FBF7DCF91E4CA070000AE070002000F000
:1065F000B5F9FEF7C7F804206870E078A1780002CA
:106600000843184988420BD8174C208880B2FFF7FE
:10661000C3FA002804D0FEF751FA012804D016E08E
:106620000020FFF719FB38BD0021615E6846FCF7CA
:106630001FFA0E4900980968401A0090218889B213
:10664000FCF798F92878002801D101202870002053
:10665000687038BD8E100010A80200104F0D001099
:10666000760D0010B80B0000DA020010E4020010F2
:10667000F8B584461D4801240078002834D01C4D0C
:106680001C4E6A78DF27134690073B40B17B0028F9
:1066900007DB00291CD0491EC8B2B0730021315459
:1066A00009E0F07B002808D0401E124AC0B2002149
:1066B000F0730A3281546B700BE0FD2002403A40C7
:1066C0006A70307C814204D3202002436A7000E06B
:1066D00000246046401E81B2002C04D000231A46DC
:1066E0002020FDF70AFC2046F8BD0000AA02001099
:1066F000340D00103D0D0010F0B5A7B0142122A8F4
:10670000FBF714F92A4F7878232844D000F098F941
:106710002848FBF743F982B22748110A8270C170FA
:10672000042078702548824237D8002302A91846F1
:1067300002F04CF8002830D0214CF721A078084016
:10674000A07002210846FDF731FB02A80230FBF7DA
:106750003EF964220023FAF761FD0193009202469C
:106760000B4618A122A8FAF7E9FD0CA80021013078
:10677000FBF7D0FD012122A8FBF7CCFDFBF77CFD48
:10678000A078EF210840A070012000F0E7F8252054
:106790007870FDF7F7FF27B0F0BD0021162002F05A
:1067A000AFF8012000F0DAF80020FFF755FAF0E723
:1067B000A80200104F0D0010760D0010B80B00005D
:1067C000340D0010256C6C642C2530326C6C640028
:1067D000FEB50D46064600F033F9364C002D21D0AB
:1067E00071202070002E1FD02B20334F6070384650
:1067F0001A3012370290002D18D0FBF7E8F8054642
:106800000E463846FBF7E3F80B4602462BA10196ED
:106810000095A01CFAF792FD3846FBF7D8F808431C
:1068200011D015E07020DCE72D20DEE7FBF7CFF874
:1068300005460E463846FBF7CAF80B46024623A12A
:1068400001960095E5E70298FBF7C1F8084322D0CE
:106850002248C07B0007C00F25D000280AD0154869
:10686000FAF7CEFF81B214200090022301221148D2
:10687000FDF70AF91A49002048701A48F7224178B2
:10688000114041700178FD2211400170FDF7BCFA02
:10689000FDF7C0FAFEBD0021162002F031F81248C3
:1068A000FCF7D4F9E6E70348FAF7AAFF81B2002023
:1068B000C043D9E7360F00103D0D00102530376C6E
:1068C0006C642530326C6C64000000002530326C42
:1068D0006C642530326C6C6400000000F40C001015
:1068E000A8020010340D0010DC05000070B5194D31
:1068F00001466878164C23280CD0002802D0401E90
:10690000032807D22046FCF77DF8012803D0002099
:10691000FFF7A2F970BD607A00280FD0601DFBF769
:106920003DF880B2FFF7E8F8FEF7C8F80128F1D18A
:1069300028780028EED10120287070BD601DFBF77B
:106940002DF805490880022001F098FD70BD000077
:10695000F60D0010A8020010DA02001070B50B4C02
:1069600005466178DD200140617039210848FAF759
:10697000DBFF012D09D1074800214170A07880215B
:10698000A843A0700448FAF7CFFF70BD340D001083
:106990003D0D0010A8020010760D0010F0B526483D
:1069A00000214778042603240825022223483B00BF
:1069B000FDF74AF83F21212326282F332D2D2626A7
:1069C000373937372F2F3F312F2F31262F313131A4
:1069D0003131313B3F3F3F3F3F3F3F3F3F3F3F3FF5
:1069E0003F2A2A2A2A3F2A3F313F2F3F3F3F3F3F3E
:1069F0003F3F23233F000A2100E00521017404E00A
:106A000005740CE00C2204E005744474F0BD0274BB
:106A100005E002740BE0067409E00721017442747A
:106A2000F0BD0622F5E70722F3E70522F1E74174FE
:106A3000F0BD0174FBE70000A80200103D0D00103E
:106A4000F0B5384D0024687885B0411E032905D97A
:106A50002C2803D02F2801D02D2820D1324E0023FE
:106A600031781A462020FDF748FA3078801CC1B2F0
:106A7000317028780B2812D12C48407BFF2804D194
:106A80002B4A40239078184390702E206870002382
:106A90001A462020FDF731FA3078401C307000256E
:106AA00000950195029523480395FAF7A9FE024641
:106AB00020496846FAF7D2FE6846FAF75BFE1D4A9F
:106AC0001232FAF7A1FF1B480095019502950A3092
:106AD00003950546FAF794FE024629466846FAF7FA
